{
    "_format": "hh-sol-artifact-1",
    "contractName": "MyERC721",
    "sourceName": "contracts/MyERC721.sol",
    "abi": [
        {
            "inputs": [
                {
                    "internalType": "address",
                    "name": "owner",
                    "type": "address"
                },
                {
                    "internalType": "string",
                    "name": "name",
                    "type": "string"
                },
                {
                    "internalType": "string",
                    "name": "symbol",
                    "type": "string"
                },
                {
                    "internalType": "string",
                    "name": "baseURI",
                    "type": "string"
                },
                {
                    "internalType": "string",
                    "name": "contractURI",
                    "type": "string"
                },
                {
                    "internalType": "address",
                    "name": "operatorAllowlist",
                    "type": "address"
                },
                {
                    "internalType": "address",
                    "name": "receiver",
                    "type": "address"
                },
                {
                    "internalType": "uint96",
                    "name": "feeNumerator",
                    "type": "uint96"
                }
            ],
            "stateMutability": "nonpayable",
            "type": "constructor"
        },
        {
            "inputs": [],
            "name": "AllowlistDoesNotImplementIOperatorAllowlist",
            "type": "error"
        },
        {
            "inputs": [
                {
                    "internalType": "address",
                    "name": "target",
                    "type": "address"
                }
            ],
            "name": "ApproveTargetNotInAllowlist",
            "type": "error"
        },
        {
            "inputs": [
                {
                    "internalType": "address",
                    "name": "approver",
                    "type": "address"
                }
            ],
            "name": "ApproverNotInAllowlist",
            "type": "error"
        },
        {
            "inputs": [
                {
                    "internalType": "address",
                    "name": "caller",
                    "type": "address"
                }
            ],
            "name": "CallerNotInAllowlist",
            "type": "error"
        },
        {
            "inputs": [
                {
                    "internalType": "uint256",
                    "name": "tokenId",
                    "type": "uint256"
                }
            ],
            "name": "IImmutableERC721IDAboveThreshold",
            "type": "error"
        },
        {
            "inputs": [
                {
                    "internalType": "uint256",
                    "name": "tokenId",
                    "type": "uint256"
                },
                {
                    "internalType": "address",
                    "name": "currentOwner",
                    "type": "address"
                }
            ],
            "name": "IImmutableERC721MismatchedTokenOwner",
            "type": "error"
        },
        {
            "inputs": [],
            "name": "IImmutableERC721MismatchedTransferLengths",
            "type": "error"
        },
        {
            "inputs": [
                {
                    "internalType": "uint256",
                    "name": "tokenId",
                    "type": "uint256"
                }
            ],
            "name": "IImmutableERC721NotOwnerOrOperator",
            "type": "error"
        },
        {
            "inputs": [],
            "name": "IImmutableERC721SendingToZerothAddress",
            "type": "error"
        },
        {
            "inputs": [
                {
                    "internalType": "uint256",
                    "name": "tokenId",
                    "type": "uint256"
                }
            ],
            "name": "IImmutableERC721TokenAlreadyBurned",
            "type": "error"
        },
        {
            "inputs": [
                {
                    "internalType": "address",
                    "name": "from",
                    "type": "address"
                }
            ],
            "name": "TransferFromNotInAllowlist",
            "type": "error"
        },
        {
            "inputs": [
                {
                    "internalType": "address",
                    "name": "to",
                    "type": "address"
                }
            ],
            "name": "TransferToNotInAllowlist",
            "type": "error"
        },
        {
            "anonymous": false,
            "inputs": [
                {
                    "indexed": true,
                    "internalType": "address",
                    "name": "owner",
                    "type": "address"
                },
                {
                    "indexed": true,
                    "internalType": "address",
                    "name": "approved",
                    "type": "address"
                },
                {
                    "indexed": true,
                    "internalType": "uint256",
                    "name": "tokenId",
                    "type": "uint256"
                }
            ],
            "name": "Approval",
            "type": "event"
        },
        {
            "anonymous": false,
            "inputs": [
                {
                    "indexed": true,
                    "internalType": "address",
                    "name": "owner",
                    "type": "address"
                },
                {
                    "indexed": true,
                    "internalType": "address",
                    "name": "operator",
                    "type": "address"
                },
                {
                    "indexed": false,
                    "internalType": "bool",
                    "name": "approved",
                    "type": "bool"
                }
            ],
            "name": "ApprovalForAll",
            "type": "event"
        },
        {
            "anonymous": false,
            "inputs": [
                {
                    "indexed": false,
                    "internalType": "address",
                    "name": "oldRegistry",
                    "type": "address"
                },
                {
                    "indexed": false,
                    "internalType": "address",
                    "name": "newRegistry",
                    "type": "address"
                }
            ],
            "name": "OperatorAllowlistRegistryUpdated",
            "type": "event"
        },
        {
            "anonymous": false,
            "inputs": [
                {
                    "indexed": true,
                    "internalType": "bytes32",
                    "name": "role",
                    "type": "bytes32"
                },
                {
                    "indexed": true,
                    "internalType": "bytes32",
                    "name": "previousAdminRole",
                    "type": "bytes32"
                },
                {
                    "indexed": true,
                    "internalType": "bytes32",
                    "name": "newAdminRole",
                    "type": "bytes32"
                }
            ],
            "name": "RoleAdminChanged",
            "type": "event"
        },
        {
            "anonymous": false,
            "inputs": [
                {
                    "indexed": true,
                    "internalType": "bytes32",
                    "name": "role",
                    "type": "bytes32"
                },
                {
                    "indexed": true,
                    "internalType": "address",
                    "name": "account",
                    "type": "address"
                },
                {
                    "indexed": true,
                    "internalType": "address",
                    "name": "sender",
                    "type": "address"
                }
            ],
            "name": "RoleGranted",
            "type": "event"
        },
        {
            "anonymous": false,
            "inputs": [
                {
                    "indexed": true,
                    "internalType": "bytes32",
                    "name": "role",
                    "type": "bytes32"
                },
                {
                    "indexed": true,
                    "internalType": "address",
                    "name": "account",
                    "type": "address"
                },
                {
                    "indexed": true,
                    "internalType": "address",
                    "name": "sender",
                    "type": "address"
                }
            ],
            "name": "RoleRevoked",
            "type": "event"
        },
        {
            "anonymous": false,
            "inputs": [
                {
                    "indexed": true,
                    "internalType": "address",
                    "name": "from",
                    "type": "address"
                },
                {
                    "indexed": true,
                    "internalType": "address",
                    "name": "to",
                    "type": "address"
                },
                {
                    "indexed": true,
                    "internalType": "uint256",
                    "name": "tokenId",
                    "type": "uint256"
                }
            ],
            "name": "Transfer",
            "type": "event"
        },
        {
            "inputs": [],
            "name": "DEFAULT_ADMIN_ROLE",
            "outputs": [
                {
                    "internalType": "bytes32",
                    "name": "",
                    "type": "bytes32"
                }
            ],
            "stateMutability": "view",
            "type": "function"
        },
        {
            "inputs": [],
            "name": "MINTER_ROLE",
            "outputs": [
                {
                    "internalType": "bytes32",
                    "name": "",
                    "type": "bytes32"
                }
            ],
            "stateMutability": "view",
            "type": "function"
        },
        {
            "inputs": [
                {
                    "internalType": "address",
                    "name": "to",
                    "type": "address"
                },
                {
                    "internalType": "uint256",
                    "name": "tokenId",
                    "type": "uint256"
                }
            ],
            "name": "approve",
            "outputs": [],
            "stateMutability": "nonpayable",
            "type": "function"
        },
        {
            "inputs": [
                {
                    "internalType": "address",
                    "name": "owner",
                    "type": "address"
                }
            ],
            "name": "balanceOf",
            "outputs": [
                {
                    "internalType": "uint256",
                    "name": "",
                    "type": "uint256"
                }
            ],
            "stateMutability": "view",
            "type": "function"
        },
        {
            "inputs": [],
            "name": "baseURI",
            "outputs": [
                {
                    "internalType": "string",
                    "name": "",
                    "type": "string"
                }
            ],
            "stateMutability": "view",
            "type": "function"
        },
        {
            "inputs": [],
            "name": "bulkMintThreshold",
            "outputs": [
                {
                    "internalType": "uint256",
                    "name": "",
                    "type": "uint256"
                }
            ],
            "stateMutability": "pure",
            "type": "function"
        },
        {
            "inputs": [
                {
                    "internalType": "uint256",
                    "name": "tokenId",
                    "type": "uint256"
                }
            ],
            "name": "burn",
            "outputs": [],
            "stateMutability": "nonpayable",
            "type": "function"
        },
        {
            "inputs": [
                {
                    "internalType": "uint256[]",
                    "name": "tokenIDs",
                    "type": "uint256[]"
                }
            ],
            "name": "burnBatch",
            "outputs": [],
            "stateMutability": "nonpayable",
            "type": "function"
        },
        {
            "inputs": [],
            "name": "contractURI",
            "outputs": [
                {
                    "internalType": "string",
                    "name": "",
                    "type": "string"
                }
            ],
            "stateMutability": "view",
            "type": "function"
        },
        {
            "inputs": [
                {
                    "internalType": "uint256",
                    "name": "tokenId",
                    "type": "uint256"
                }
            ],
            "name": "exists",
            "outputs": [
                {
                    "internalType": "bool",
                    "name": "",
                    "type": "bool"
                }
            ],
            "stateMutability": "view",
            "type": "function"
        },
        {
            "inputs": [],
            "name": "getAdmins",
            "outputs": [
                {
                    "internalType": "address[]",
                    "name": "",
                    "type": "address[]"
                }
            ],
            "stateMutability": "view",
            "type": "function"
        },
        {
            "inputs": [
                {
                    "internalType": "uint256",
                    "name": "tokenId",
                    "type": "uint256"
                }
            ],
            "name": "getApproved",
            "outputs": [
                {
                    "internalType": "address",
                    "name": "",
                    "type": "address"
                }
            ],
            "stateMutability": "view",
            "type": "function"
        },
        {
            "inputs": [
                {
                    "internalType": "bytes32",
                    "name": "role",
                    "type": "bytes32"
                }
            ],
            "name": "getRoleAdmin",
            "outputs": [
                {
                    "internalType": "bytes32",
                    "name": "",
                    "type": "bytes32"
                }
            ],
            "stateMutability": "view",
            "type": "function"
        },
        {
            "inputs": [
                {
                    "internalType": "bytes32",
                    "name": "role",
                    "type": "bytes32"
                },
                {
                    "internalType": "uint256",
                    "name": "index",
                    "type": "uint256"
                }
            ],
            "name": "getRoleMember",
            "outputs": [
                {
                    "internalType": "address",
                    "name": "",
                    "type": "address"
                }
            ],
            "stateMutability": "view",
            "type": "function"
        },
        {
            "inputs": [
                {
                    "internalType": "bytes32",
                    "name": "role",
                    "type": "bytes32"
                }
            ],
            "name": "getRoleMemberCount",
            "outputs": [
                {
                    "internalType": "uint256",
                    "name": "",
                    "type": "uint256"
                }
            ],
            "stateMutability": "view",
            "type": "function"
        },
        {
            "inputs": [
                {
                    "internalType": "address",
                    "name": "user",
                    "type": "address"
                }
            ],
            "name": "grantMinterRole",
            "outputs": [],
            "stateMutability": "nonpayable",
            "type": "function"
        },
        {
            "inputs": [
                {
                    "internalType": "bytes32",
                    "name": "role",
                    "type": "bytes32"
                },
                {
                    "internalType": "address",
                    "name": "account",
                    "type": "address"
                }
            ],
            "name": "grantRole",
            "outputs": [],
            "stateMutability": "nonpayable",
            "type": "function"
        },
        {
            "inputs": [
                {
                    "internalType": "bytes32",
                    "name": "role",
                    "type": "bytes32"
                },
                {
                    "internalType": "address",
                    "name": "account",
                    "type": "address"
                }
            ],
            "name": "hasRole",
            "outputs": [
                {
                    "internalType": "bool",
                    "name": "",
                    "type": "bool"
                }
            ],
            "stateMutability": "view",
            "type": "function"
        },
        {
            "inputs": [
                {
                    "internalType": "address",
                    "name": "owner",
                    "type": "address"
                },
                {
                    "internalType": "address",
                    "name": "operator",
                    "type": "address"
                }
            ],
            "name": "isApprovedForAll",
            "outputs": [
                {
                    "internalType": "bool",
                    "name": "",
                    "type": "bool"
                }
            ],
            "stateMutability": "view",
            "type": "function"
        },
        {
            "inputs": [
                {
                    "internalType": "address",
                    "name": "to",
                    "type": "address"
                },
                {
                    "internalType": "uint256",
                    "name": "tokenId",
                    "type": "uint256"
                }
            ],
            "name": "mint",
            "outputs": [],
            "stateMutability": "nonpayable",
            "type": "function"
        },
        {
            "inputs": [
                {
                    "components": [
                        {
                            "internalType": "address",
                            "name": "to",
                            "type": "address"
                        },
                        {
                            "internalType": "uint256[]",
                            "name": "tokenIds",
                            "type": "uint256[]"
                        }
                    ],
                    "internalType": "struct ERC721Hybrid.IDMint[]",
                    "name": "mints",
                    "type": "tuple[]"
                }
            ],
            "name": "mintBatch",
            "outputs": [],
            "stateMutability": "nonpayable",
            "type": "function"
        },
        {
            "inputs": [
                {
                    "components": [
                        {
                            "internalType": "address",
                            "name": "to",
                            "type": "address"
                        },
                        {
                            "internalType": "uint256",
                            "name": "quantity",
                            "type": "uint256"
                        }
                    ],
                    "internalType": "struct ERC721Hybrid.Mint[]",
                    "name": "mints",
                    "type": "tuple[]"
                }
            ],
            "name": "mintBatchByQuantity",
            "outputs": [],
            "stateMutability": "nonpayable",
            "type": "function"
        },
        {
            "inputs": [
                {
                    "internalType": "address",
                    "name": "to",
                    "type": "address"
                },
                {
                    "internalType": "uint256",
                    "name": "quantity",
                    "type": "uint256"
                }
            ],
            "name": "mintByQuantity",
            "outputs": [],
            "stateMutability": "nonpayable",
            "type": "function"
        },
        {
            "inputs": [],
            "name": "name",
            "outputs": [
                {
                    "internalType": "string",
                    "name": "",
                    "type": "string"
                }
            ],
            "stateMutability": "view",
            "type": "function"
        },
        {
            "inputs": [],
            "name": "operatorAllowlist",
            "outputs": [
                {
                    "internalType": "contract IOperatorAllowlist",
                    "name": "",
                    "type": "address"
                }
            ],
            "stateMutability": "view",
            "type": "function"
        },
        {
            "inputs": [
                {
                    "internalType": "uint256",
                    "name": "tokenId",
                    "type": "uint256"
                }
            ],
            "name": "ownerOf",
            "outputs": [
                {
                    "internalType": "address",
                    "name": "",
                    "type": "address"
                }
            ],
            "stateMutability": "view",
            "type": "function"
        },
        {
            "inputs": [
                {
                    "internalType": "bytes32",
                    "name": "role",
                    "type": "bytes32"
                },
                {
                    "internalType": "address",
                    "name": "account",
                    "type": "address"
                }
            ],
            "name": "renounceRole",
            "outputs": [],
            "stateMutability": "nonpayable",
            "type": "function"
        },
        {
            "inputs": [
                {
                    "internalType": "address",
                    "name": "user",
                    "type": "address"
                }
            ],
            "name": "revokeMinterRole",
            "outputs": [],
            "stateMutability": "nonpayable",
            "type": "function"
        },
        {
            "inputs": [
                {
                    "internalType": "bytes32",
                    "name": "role",
                    "type": "bytes32"
                },
                {
                    "internalType": "address",
                    "name": "account",
                    "type": "address"
                }
            ],
            "name": "revokeRole",
            "outputs": [],
            "stateMutability": "nonpayable",
            "type": "function"
        },
        {
            "inputs": [
                {
                    "internalType": "uint256",
                    "name": "tokenId",
                    "type": "uint256"
                },
                {
                    "internalType": "uint256",
                    "name": "salePrice",
                    "type": "uint256"
                }
            ],
            "name": "royaltyInfo",
            "outputs": [
                {
                    "internalType": "address",
                    "name": "",
                    "type": "address"
                },
                {
                    "internalType": "uint256",
                    "name": "",
                    "type": "uint256"
                }
            ],
            "stateMutability": "view",
            "type": "function"
        },
        {
            "inputs": [
                {
                    "internalType": "address",
                    "name": "owner",
                    "type": "address"
                },
                {
                    "internalType": "uint256",
                    "name": "tokenId",
                    "type": "uint256"
                }
            ],
            "name": "safeBurn",
            "outputs": [],
            "stateMutability": "nonpayable",
            "type": "function"
        },
        {
            "inputs": [
                {
                    "components": [
                        {
                            "internalType": "address",
                            "name": "owner",
                            "type": "address"
                        },
                        {
                            "internalType": "uint256[]",
                            "name": "tokenIds",
                            "type": "uint256[]"
                        }
                    ],
                    "internalType": "struct ERC721Hybrid.IDBurn[]",
                    "name": "burns",
                    "type": "tuple[]"
                }
            ],
            "name": "safeBurnBatch",
            "outputs": [],
            "stateMutability": "nonpayable",
            "type": "function"
        },
        {
            "inputs": [
                {
                    "internalType": "address",
                    "name": "to",
                    "type": "address"
                },
                {
                    "internalType": "uint256",
                    "name": "tokenId",
                    "type": "uint256"
                }
            ],
            "name": "safeMint",
            "outputs": [],
            "stateMutability": "nonpayable",
            "type": "function"
        },
        {
            "inputs": [
                {
                    "components": [
                        {
                            "internalType": "address",
                            "name": "to",
                            "type": "address"
                        },
                        {
                            "internalType": "uint256[]",
                            "name": "tokenIds",
                            "type": "uint256[]"
                        }
                    ],
                    "internalType": "struct ERC721Hybrid.IDMint[]",
                    "name": "mints",
                    "type": "tuple[]"
                }
            ],
            "name": "safeMintBatch",
            "outputs": [],
            "stateMutability": "nonpayable",
            "type": "function"
        },
        {
            "inputs": [
                {
                    "components": [
                        {
                            "internalType": "address",
                            "name": "to",
                            "type": "address"
                        },
                        {
                            "internalType": "uint256",
                            "name": "quantity",
                            "type": "uint256"
                        }
                    ],
                    "internalType": "struct ERC721Hybrid.Mint[]",
                    "name": "mints",
                    "type": "tuple[]"
                }
            ],
            "name": "safeMintBatchByQuantity",
            "outputs": [],
            "stateMutability": "nonpayable",
            "type": "function"
        },
        {
            "inputs": [
                {
                    "internalType": "address",
                    "name": "to",
                    "type": "address"
                },
                {
                    "internalType": "uint256",
                    "name": "quantity",
                    "type": "uint256"
                }
            ],
            "name": "safeMintByQuantity",
            "outputs": [],
            "stateMutability": "nonpayable",
            "type": "function"
        },
        {
            "inputs": [
                {
                    "internalType": "address",
                    "name": "from",
                    "type": "address"
                },
                {
                    "internalType": "address",
                    "name": "to",
                    "type": "address"
                },
                {
                    "internalType": "uint256",
                    "name": "tokenId",
                    "type": "uint256"
                }
            ],
            "name": "safeTransferFrom",
            "outputs": [],
            "stateMutability": "nonpayable",
            "type": "function"
        },
        {
            "inputs": [
                {
                    "internalType": "address",
                    "name": "from",
                    "type": "address"
                },
                {
                    "internalType": "address",
                    "name": "to",
                    "type": "address"
                },
                {
                    "internalType": "uint256",
                    "name": "tokenId",
                    "type": "uint256"
                },
                {
                    "internalType": "bytes",
                    "name": "_data",
                    "type": "bytes"
                }
            ],
            "name": "safeTransferFrom",
            "outputs": [],
            "stateMutability": "nonpayable",
            "type": "function"
        },
        {
            "inputs": [
                {
                    "components": [
                        {
                            "internalType": "address",
                            "name": "from",
                            "type": "address"
                        },
                        {
                            "internalType": "address[]",
                            "name": "tos",
                            "type": "address[]"
                        },
                        {
                            "internalType": "uint256[]",
                            "name": "tokenIds",
                            "type": "uint256[]"
                        }
                    ],
                    "internalType": "struct ERC721Hybrid.TransferRequest",
                    "name": "tr",
                    "type": "tuple"
                }
            ],
            "name": "safeTransferFromBatch",
            "outputs": [],
            "stateMutability": "nonpayable",
            "type": "function"
        },
        {
            "inputs": [
                {
                    "internalType": "address",
                    "name": "operator",
                    "type": "address"
                },
                {
                    "internalType": "bool",
                    "name": "approved",
                    "type": "bool"
                }
            ],
            "name": "setApprovalForAll",
            "outputs": [],
            "stateMutability": "nonpayable",
            "type": "function"
        },
        {
            "inputs": [
                {
                    "internalType": "string",
                    "name": "baseURI_",
                    "type": "string"
                }
            ],
            "name": "setBaseURI",
            "outputs": [],
            "stateMutability": "nonpayable",
            "type": "function"
        },
        {
            "inputs": [
                {
                    "internalType": "string",
                    "name": "_contractURI",
                    "type": "string"
                }
            ],
            "name": "setContractURI",
            "outputs": [],
            "stateMutability": "nonpayable",
            "type": "function"
        },
        {
            "inputs": [
                {
                    "internalType": "address",
                    "name": "receiver",
                    "type": "address"
                },
                {
                    "internalType": "uint96",
                    "name": "feeNumerator",
                    "type": "uint96"
                }
            ],
            "name": "setDefaultRoyaltyReceiver",
            "outputs": [],
            "stateMutability": "nonpayable",
            "type": "function"
        },
        {
            "inputs": [
                {
                    "internalType": "uint256",
                    "name": "tokenId",
                    "type": "uint256"
                },
                {
                    "internalType": "address",
                    "name": "receiver",
                    "type": "address"
                },
                {
                    "internalType": "uint96",
                    "name": "feeNumerator",
                    "type": "uint96"
                }
            ],
            "name": "setNFTRoyaltyReceiver",
            "outputs": [],
            "stateMutability": "nonpayable",
            "type": "function"
        },
        {
            "inputs": [
                {
                    "internalType": "uint256[]",
                    "name": "tokenIds",
                    "type": "uint256[]"
                },
                {
                    "internalType": "address",
                    "name": "receiver",
                    "type": "address"
                },
                {
                    "internalType": "uint96",
                    "name": "feeNumerator",
                    "type": "uint96"
                }
            ],
            "name": "setNFTRoyaltyReceiverBatch",
            "outputs": [],
            "stateMutability": "nonpayable",
            "type": "function"
        },
        {
            "inputs": [
                {
                    "internalType": "address",
                    "name": "_operatorAllowlist",
                    "type": "address"
                }
            ],
            "name": "setOperatorAllowlistRegistry",
            "outputs": [],
            "stateMutability": "nonpayable",
            "type": "function"
        },
        {
            "inputs": [
                {
                    "internalType": "bytes4",
                    "name": "interfaceId",
                    "type": "bytes4"
                }
            ],
            "name": "supportsInterface",
            "outputs": [
                {
                    "internalType": "bool",
                    "name": "",
                    "type": "bool"
                }
            ],
            "stateMutability": "view",
            "type": "function"
        },
        {
            "inputs": [],
            "name": "symbol",
            "outputs": [
                {
                    "internalType": "string",
                    "name": "",
                    "type": "string"
                }
            ],
            "stateMutability": "view",
            "type": "function"
        },
        {
            "inputs": [
                {
                    "internalType": "uint256",
                    "name": "tokenId",
                    "type": "uint256"
                }
            ],
            "name": "tokenURI",
            "outputs": [
                {
                    "internalType": "string",
                    "name": "",
                    "type": "string"
                }
            ],
            "stateMutability": "view",
            "type": "function"
        },
        {
            "inputs": [],
            "name": "totalSupply",
            "outputs": [
                {
                    "internalType": "uint256",
                    "name": "",
                    "type": "uint256"
                }
            ],
            "stateMutability": "view",
            "type": "function"
        },
        {
            "inputs": [
                {
                    "internalType": "address",
                    "name": "from",
                    "type": "address"
                },
                {
                    "internalType": "address",
                    "name": "to",
                    "type": "address"
                },
                {
                    "internalType": "uint256",
                    "name": "tokenId",
                    "type": "uint256"
                }
            ],
            "name": "transferFrom",
            "outputs": [],
            "stateMutability": "nonpayable",
            "type": "function"
        }
    ],
    "bytecode": "0x608060405260006013553480156200001657600080fd5b5060405162004f5638038062004f5683398101604081905262000039916200054f565b8787878787878787878787878787878786868181818160066200005d8382620006e2565b5060076200006c8282620006e2565b50506801000000000000000060095550600d6200008a8382620006e2565b50600e620000998282620006e2565b50620000ae9350600092508b91505062000101565b620000ba828262000144565b620000c58362000249565b6016620000d38682620006e2565b506015620000e28582620006e2565b50505050505050505050505050505050505050505050505050620007d9565b6200011882826200034260201b620011e11760201c565b60008281526001602090815260409091206200013f91839062001265620003e3821b17901c565b505050565b6127106001600160601b0382161115620001b85760405162461bcd60e51b815260206004820152602a60248201527f455243323938313a20726f79616c7479206665652077696c6c206578636565646044820152692073616c65507269636560b01b60648201526084015b60405180910390fd5b6001600160a01b038216620002105760405162461bcd60e51b815260206004820152601960248201527f455243323938313a20696e76616c6964207265636569766572000000000000006044820152606401620001af565b604080518082019091526001600160a01b039092168083526001600160601b039091166020909201829052600160a01b90910217600355565b6040516301ffc9a760e01b81526305a3b80960e01b60048201526001600160a01b038216906301ffc9a790602401602060405180830381865afa15801562000295573d6000803e3d6000fd5b505050506040513d601f19601f82011682018060405250810190620002bb9190620007ae565b620002d95760405163d6f93fb760e01b815260040160405180910390fd5b600254604080516001600160a01b03928316815291831660208301527f3edc37a14cc8047c7c8a3f354311efe86c14848efd4e3765a3e1e57eea04ea76910160405180910390a1600280546001600160a01b0319166001600160a01b0392909216919091179055565b6000828152602081815260408083206001600160a01b038516845290915290205460ff16620003df576000828152602081815260408083206001600160a01b03851684529091529020805460ff191660011790556200039e3390565b6001600160a01b0316816001600160a01b0316837f2f8788117e7eff1d82e926ec794901d17c78024a50270940304540a733656f0d60405160405180910390a45b5050565b6000620003fa836001600160a01b03841662000403565b90505b92915050565b60008181526001830160205260408120546200044c57508154600181810184556000848152602080822090930184905584548482528286019093526040902091909155620003fd565b506000620003fd565b80516001600160a01b03811681146200046d57600080fd5b919050565b634e487b7160e01b600052604160045260246000fd5b600082601f8301126200049a57600080fd5b81516001600160401b0380821115620004b757620004b762000472565b604051601f8301601f19908116603f01168101908282118183101715620004e257620004e262000472565b81604052838152602092508683858801011115620004ff57600080fd5b600091505b8382101562000523578582018301518183018401529082019062000504565b600093810190920192909252949350505050565b80516001600160601b03811681146200046d57600080fd5b600080600080600080600080610100898b0312156200056d57600080fd5b620005788962000455565b60208a01519098506001600160401b03808211156200059657600080fd5b620005a48c838d0162000488565b985060408b0151915080821115620005bb57600080fd5b620005c98c838d0162000488565b975060608b0151915080821115620005e057600080fd5b620005ee8c838d0162000488565b965060808b01519150808211156200060557600080fd5b50620006148b828c0162000488565b9450506200062560a08a0162000455565b92506200063560c08a0162000455565b91506200064560e08a0162000537565b90509295985092959890939650565b600181811c908216806200066957607f821691505b6020821081036200068a57634e487b7160e01b600052602260045260246000fd5b50919050565b601f8211156200013f57600081815260208120601f850160051c81016020861015620006b95750805b601f850160051c820191505b81811015620006da57828155600101620006c5565b505050505050565b81516001600160401b03811115620006fe57620006fe62000472565b62000716816200070f845462000654565b8462000690565b602080601f8311600181146200074e5760008415620007355750858301515b600019600386901b1c1916600185901b178555620006da565b600085815260208120601f198616915b828110156200077f578886015182559484019460019091019084016200075e565b50858210156200079e5787850151600019600388901b60f8161c191681555b5050505050600190811b01905550565b600060208284031215620007c157600080fd5b81518015158114620007d257600080fd5b9392505050565b61476d80620007e96000396000f3fe608060405234801561001057600080fd5b50600436106102f05760003560e01c806369e2f0fb1161019d578063a22cb465116100e9578063d547741f116100a2578063e4e18f6d1161007c578063e4e18f6d146106af578063e8a3d485146106c2578063e985e9c5146106ca578063eea98768146106dd57600080fd5b8063d547741f14610676578063e192785914610689578063e4623c1b1461069c57600080fd5b8063a22cb46514610602578063a701281614610615578063b88d4fde14610628578063c87b56dd1461063b578063ca15c8731461064e578063d53913931461066157600080fd5b806391d14854116101565780639e2641a3116101305780639e2641a3146105c15780639f15d700146105d4578063a1448194146105e7578063a217fddf146105fa57600080fd5b806391d1485414610593578063938e3d7b146105a657806395d89b41146105b957600080fd5b806369e2f0fb1461052c5780636c0360eb1461053f57806370a082311461054757806374f16a811461055a578063885e7a081461056d5780639010d07c1461058057600080fd5b80632d2c5a8b1161025c57806342842e0e116102155780634f558e79116101ef5780634f558e79146104e057806355f804b3146104f3578063567e4075146105065780636352211e1461051957600080fd5b806342842e0e146104a757806342966c68146104ba578063439aed34146104cd57600080fd5b80632d2c5a8b146104335780632f2ff15d1461044657806331ae450b1461045957806336568abe1461046e5780633dd1eb611461048157806340c10f191461049457600080fd5b80631f8ebbd1116102ae5780631f8ebbd11461039b578063234af046146103a557806323b872dd146103b8578063248a9ca3146103cb57806329326f29146103ee5780632a55205a1461040157600080fd5b80628ad946146102f557806301ffc9a71461030a57806306fdde0314610332578063081812fc14610347578063095ea7b31461037257806318160ddd14610385575b600080fd5b61030861030336600461391b565b6106f0565b005b61031d61031836600461396b565b6107c6565b60405190151581526020015b60405180910390f35b61033a6107d7565b60405161032991906139d8565b61035a6103553660046139eb565b6107e6565b6040516001600160a01b039091168152602001610329565b610308610380366004613a1b565b610806565b61038d610961565b604051908152602001610329565b600160401b61038d565b6103086103b3366004613be7565b610978565b6103086103c6366004613c2f565b610999565b61038d6103d93660046139eb565b60009081526020819052604090206001015490565b60025461035a906001600160a01b031681565b61041461040f366004613c6b565b6109bb565b604080516001600160a01b039093168352602083019190915201610329565b610308610441366004613c8d565b610a69565b610308610454366004613d49565b610a8a565b610461610aaf565b6040516103299190613d75565b61030861047c366004613d49565b610b5d565b61030861048f366004613dc2565b610bd7565b6103086104a2366004613a1b565b610bfa565b6103086104b5366004613c2f565b610c1c565b6103086104c83660046139eb565b610c37565b6103086104db366004613df4565b610c6e565b61031d6104ee3660046139eb565b610c97565b610308610501366004613e87565b610ca2565b610308610514366004613a1b565b610cb9565b61035a6105273660046139eb565b610cdb565b61030861053a366004613dc2565b610cfb565b61033a610d1e565b61038d610555366004613dc2565b610dac565b610308610568366004613be7565b610dca565b61030861057b366004613ecf565b610dd3565b61035a61058e366004613c6b565b610de8565b61031d6105a1366004613d49565b610e07565b6103086105b4366004613e87565b610e30565b61033a610e47565b6103086105cf366004613be7565b610e51565b6103086105e2366004613a1b565b610e72565b6103086105f5366004613a1b565b610ecc565b61038d600081565b610308610610366004613f07565b610eee565b610308610623366004613f82565b61103f565b610308610636366004613fe6565b61109f565b61033a6106493660046139eb565b6110c8565b61038d61065c3660046139eb565b6110d3565b61038d6a4d494e5445525f524f4c4560a81b81565b610308610684366004613d49565b6110ea565b610308610697366004613c8d565b61110f565b6103086106aa366004614061565b611130565b6103086106bd366004613dc2565b61116e565b61033a611182565b61031d6106d83660046140a2565b61118f565b6103086106eb366004613a1b565b6111bf565b6106fd60208201826140cc565b905061070c60408301836140cc565b90501461072c5760405163359a1bc360e01b815260040160405180910390fd5b60005b61073c60408301836140cc565b90508110156107c2576107b06107556020840184613dc2565b61076260208501856140cc565b8481811061077257610772614115565b90506020020160208101906107879190613dc2565b61079460408601866140cc565b858181106107a4576107a4614115565b90506020020135610c1c565b806107ba81614141565b91505061072f565b5050565b60006107d18261127a565b92915050565b60606107e1611285565b905090565b6000600160401b8210156107fd576107d182611317565b6107d18261133e565b81333b1580159061088057506002546040516305a3b80960e01b81523360048201526001600160a01b03909116906305a3b80990602401602060405180830381865afa15801561085a573d6000803e3d6000fd5b505050506040513d601f19601f8201168201806040525081019061087e919061415a565b155b156108a55760405163f6fa4cbd60e01b81523360048201526024015b60405180910390fd5b6001600160a01b0381163b1580159061092957506002546040516305a3b80960e01b81526001600160a01b038381166004830152909116906305a3b80990602401602060405180830381865afa158015610903573d6000803e3d6000fd5b505050506040513d601f19601f82011682018060405250810190610927919061415a565b155b15610952576040516341b8d58160e11b81526001600160a01b038216600482015260240161089c565b61095c83836113c9565b505050565b600060135461096e6113e9565b6107e19190614177565b6a4d494e5445525f524f4c4560a81b61099081611405565b6107c28261140f565b600160401b8110156109b05761095c83838361145e565b61095c83838361148e565b60008281526004602090815260408083208151808301909252546001600160a01b038116808352600160a01b9091046001600160601b0316928201929092528291610a305750604080518082019091526003546001600160a01b0381168252600160a01b90046001600160601b031660208201525b602081015160009061271090610a4f906001600160601b03168761418a565b610a5991906141a1565b91519350909150505b9250929050565b6a4d494e5445525f524f4c4560a81b610a8181611405565b6107c2826114b3565b600082815260208190526040902060010154610aa581611405565b61095c8383611502565b60606000610abc816110d3565b90506000816001600160401b03811115610ad857610ad8613a45565b604051908082528060200260200182016040528015610b01578160200160208202803683370190505b50905060005b82811015610b5657610b1a600082610de8565b828281518110610b2c57610b2c614115565b6001600160a01b039092166020928302919091019091015280610b4e81614141565b915050610b07565b5092915050565b6001600160a01b0381163314610bcd5760405162461bcd60e51b815260206004820152602f60248201527f416363657373436f6e74726f6c3a2063616e206f6e6c792072656e6f756e636560448201526e103937b632b9903337b91039b2b63360891b606482015260840161089c565b6107c28282611524565b6000610be281611405565b6107c26a4d494e5445525f524f4c4560a81b83610a8a565b6a4d494e5445525f524f4c4560a81b610c1281611405565b61095c8383611546565b61095c8383836040518060200160405280600081525061109f565b610c42335b826115cd565b610c6257604051630247e3a960e01b81526004810182905260240161089c565b610c6b816115f6565b50565b6a4d494e5445525f524f4c4560a81b610c8681611405565b610c91848484611649565b50505050565b60006107d182611714565b6000610cad81611405565b601661095c8382614243565b6a4d494e5445525f524f4c4560a81b610cd181611405565b61095c8383611771565b6000600160401b821015610cf2576107d18261177b565b6107d1826117db565b6000610d0681611405565b6107c26a4d494e5445525f524f4c4560a81b836110ea565b60168054610d2b906141c3565b80601f0160208091040260200160405190810160405280929190818152602001828054610d57906141c3565b8015610da45780601f10610d7957610100808354040283529160200191610da4565b820191906000526020600020905b815481529060010190602001808311610d8757829003601f168201915b505050505081565b6000610db7826117ef565b610dc0836118ba565b6107d19190614177565b610c6b81611940565b6000610dde81611405565b61095c83836119cc565b6000828152600160205260408120610e009083611a86565b9392505050565b6000918252602082815260408084206001600160a01b0393909316845291905290205460ff1690565b6000610e3b81611405565b601561095c8382614243565b60606107e1611a92565b6a4d494e5445525f524f4c4560a81b610e6981611405565b6107c282611aa1565b6000610e7d82610cdb565b9050826001600160a01b0316816001600160a01b031614610ec357604051634fefd56160e01b8152600481018390526001600160a01b038216602482015260440161089c565b61095c82610c37565b6a4d494e5445525f524f4c4560a81b610ee481611405565b61095c8383611af0565b81333b15801590610f6857506002546040516305a3b80960e01b81523360048201526001600160a01b03909116906305a3b80990602401602060405180830381865afa158015610f42573d6000803e3d6000fd5b505050506040513d601f19601f82011682018060405250810190610f66919061415a565b155b15610f885760405163f6fa4cbd60e01b815233600482015260240161089c565b6001600160a01b0381163b1580159061100c57506002546040516305a3b80960e01b81526001600160a01b038381166004830152909116906305a3b80990602401602060405180830381865afa158015610fe6573d6000803e3d6000fd5b505050506040513d601f19601f8201168201806040525081019061100a919061415a565b155b15611035576040516341b8d58160e11b81526001600160a01b038216600482015260240161089c565b61095c8383611b5e565b6a4d494e5445525f524f4c4560a81b61105781611405565b60005b848110156110975761108586868381811061107757611077614115565b905060200201358585611649565b8061108f81614141565b91505061105a565b505050505050565b600160401b8210156110bc576110b784848484611b68565b610c91565b610c9184848484611b9b565b60606107d182611bc0565b60008181526001602052604081206107d190611c26565b60008281526020819052604090206001015461110581611405565b61095c8383611524565b6a4d494e5445525f524f4c4560a81b61112781611405565b6107c282611c30565b60005b8181101561095c5761115c83838381811061115057611150614115565b90506020020135610c37565b8061116681614141565b915050611133565b600061117981611405565b6107c282611c7f565b60158054610d2b906141c3565b6001600160a01b03808316600090815260126020908152604080832093851683529290529081205460ff16610e00565b6a4d494e5445525f524f4c4560a81b6111d781611405565b61095c8383611d74565b6111eb8282610e07565b6107c2576000828152602081815260408083206001600160a01b03851684529091529020805460ff191660011790556112213390565b6001600160a01b0316816001600160a01b0316837f2f8788117e7eff1d82e926ec794901d17c78024a50270940304540a733656f0d60405160405180910390a45050565b6000610e00836001600160a01b038416611d7e565b60006107d182611dcd565b6060600d8054611294906141c3565b80601f01602080910402602001604051908101604052809291908181526020018280546112c0906141c3565b801561130d5780601f106112e25761010080835404028352916020019161130d565b820191906000526020600020905b8154815290600101906020018083116112f057829003601f168201915b5050505050905090565b600061132282611e0d565b506000908152601160205260409020546001600160a01b031690565b600061134982611714565b6113ad5760405162461bcd60e51b815260206004820152602f60248201527f4552433732315073693a20617070726f76656420717565727920666f72206e6f60448201526e3732bc34b9ba32b73a103a37b5b2b760891b606482015260840161089c565b506000908152600a60205260409020546001600160a01b031690565b600160401b8110156113df576107c28282611e5d565b6107c28282611f6d565b60006113f3612075565b6113fb6120df565b6107e19190614302565b610c6b81336120f3565b60005b81518110156107c257600082828151811061142f5761142f614115565b6020026020010151905061144b8160000151826020015161214c565b508061145681614141565b915050611412565b61146733610c3c565b6114835760405162461bcd60e51b815260040161089c90614315565b61095c83838361218d565b61149733610c3c565b6114835760405162461bcd60e51b815260040161089c90614362565b60005b81518110156107c25760008282815181106114d3576114d3614115565b602002602001015190506114ef81600001518260200151611771565b50806114fa81614141565b9150506114b6565b61150c82826111e1565b600082815260016020526040902061095c9082611265565b61152e8282612394565b600082815260016020526040902061095c90826123f9565b600160401b811061156d5760405163b73c99f560e01b81526004810182905260240161089c565b600881901c600090815260146020526040902054600160ff83161b16156115aa576040516305dcda1160e51b81526004810182905260240161089c565b6115b4828261240e565b601380549060006115c483614141565b91905055505050565b6000600160401b8210156115ec576115e58383612569565b90506107d1565b610e0083836125c8565b600160401b8110156116405761160b8161268d565b600881901c60009081526014602052604081208054600160ff85161b1790556013805491611638836143b6565b919050555050565b610c6b81612710565b6127106001600160601b03821611156116745760405162461bcd60e51b815260040161089c906143cd565b6001600160a01b0382166116ca5760405162461bcd60e51b815260206004820152601b60248201527f455243323938313a20496e76616c696420706172616d65746572730000000000604482015260640161089c565b6040805180820182526001600160a01b0393841681526001600160601b0392831660208083019182526000968752600490529190942093519051909116600160a01b029116179055565b6000600160401b821015611768576000828152600f60205260409020546001600160a01b0316158015906107d15750600882901c600090815260146020526040902054600160ff84161b1615151592915050565b6107d182612752565b6107c28282612787565b6000818152600f60205260408120546001600160a01b0316806107d15760405162461bcd60e51b8152602060048201526018602482015277115490cdcc8c4e881a5b9d985b1a59081d1bdad95b88125160421b604482015260640161089c565b6000806117e7836127a1565b509392505050565b60006001600160a01b03821661185d5760405162461bcd60e51b815260206004820152602d60248201527f4552433732315073693a2062616c616e636520717565727920666f722074686560448201526c207a65726f206164647265737360981b606482015260840161089c565b6000600160401b5b600954811015610b565761187881611714565b156118aa5761188681610cdb565b6001600160a01b0316846001600160a01b0316036118aa576118a782614141565b91505b6118b381614141565b9050611865565b60006001600160a01b0382166119245760405162461bcd60e51b815260206004820152602960248201527f4552433732313a2061646472657373207a65726f206973206e6f7420612076616044820152683634b21037bbb732b960b91b606482015260840161089c565b506001600160a01b031660009081526010602052604090205490565b60005b81518110156107c257600082828151811061196057611960614115565b6020026020010151905060005b8160200151518110156119b7576119a582600001518360200151838151811061199857611998614115565b6020026020010151610e72565b806119af81614141565b91505061196d565b505080806119c490614141565b915050611943565b6127106001600160601b03821611156119f75760405162461bcd60e51b815260040161089c906143cd565b6001600160a01b038216611a4d5760405162461bcd60e51b815260206004820152601960248201527f455243323938313a20696e76616c696420726563656976657200000000000000604482015260640161089c565b604080518082019091526001600160a01b039092168083526001600160601b039091166020909201829052600160a01b90910217600355565b6000610e008383612838565b6060600e8054611294906141c3565b60005b81518110156107c2576000828281518110611ac157611ac1614115565b60200260200101519050611add81600001518260200151612862565b5080611ae881614141565b915050611aa4565b600160401b8110611b175760405163b73c99f560e01b81526004810182905260240161089c565b600881901c600090815260146020526040902054600160ff83161b1615611b54576040516305dcda1160e51b81526004810182905260240161089c565b6115b482826128a3565b6107c282826128bd565b611b73335b836115cd565b611b8f5760405162461bcd60e51b815260040161089c90614315565b610c91848484846128c8565b611ba433611b6d565b611b8f5760405162461bcd60e51b815260040161089c90614362565b6060611bcb82611e0d565b6000611bd56128ec565b90506000815111611bf55760405180602001604052806000815250610e00565b80611bff846128fb565b604051602001611c10929190614417565b6040516020818303038152906040529392505050565b60006107d1825490565b60005b81518110156107c2576000828281518110611c5057611c50614115565b60200260200101519050611c6c81600001518260200151611d74565b5080611c7781614141565b915050611c33565b6040516301ffc9a760e01b81526305a3b80960e01b60048201526001600160a01b038216906301ffc9a790602401602060405180830381865afa158015611cca573d6000803e3d6000fd5b505050506040513d601f19601f82011682018060405250810190611cee919061415a565b611d0b5760405163d6f93fb760e01b815260040160405180910390fd5b600254604080516001600160a01b03928316815291831660208301527f3edc37a14cc8047c7c8a3f354311efe86c14848efd4e3765a3e1e57eea04ea76910160405180910390a1600280546001600160a01b0319166001600160a01b0392909216919091179055565b6107c2828261298d565b6000818152600183016020526040812054611dc5575081546001818101845560008481526020808220909301849055845484825282860190935260409020919091556107d1565b5060006107d1565b60006001600160e01b031982166380ac58cd60e01b1480611dfe57506001600160e01b03198216635b5e139f60e01b145b806107d157506107d182612b06565b611e1681611714565b610c6b5760405162461bcd60e51b8152602060048201526018602482015277115490cdcc8c4e881a5b9d985b1a59081d1bdad95b88125160421b604482015260640161089c565b6000611e688261177b565b9050806001600160a01b0316836001600160a01b031603611ed55760405162461bcd60e51b815260206004820152602160248201527f4552433732313a20617070726f76616c20746f2063757272656e74206f776e656044820152603960f91b606482015260840161089c565b336001600160a01b0382161480611ef15750611ef1813361118f565b611f635760405162461bcd60e51b815260206004820152603d60248201527f4552433732313a20617070726f76652063616c6c6572206973206e6f7420746f60448201527f6b656e206f776e6572206f7220617070726f76656420666f7220616c6c000000606482015260840161089c565b61095c8383612b46565b6000611f7882610cdb565b9050806001600160a01b0316836001600160a01b031603611fe75760405162461bcd60e51b8152602060048201526024808201527f4552433732315073693a20617070726f76616c20746f2063757272656e74206f6044820152633bb732b960e11b606482015260840161089c565b336001600160a01b03821614806120035750612003813361118f565b611f635760405162461bcd60e51b815260206004820152603b60248201527f4552433732315073693a20617070726f76652063616c6c6572206973206e6f7460448201527f206f776e6572206e6f7220617070726f76656420666f7220616c6c0000000000606482015260840161089c565b6009546000906701000000000000009082906120959060081c6001614177565b9050815b818110156120d9576000818152600c60205260409020546120b981612b66565b6120c39086614177565b94505080806120d190614141565b915050612099565b50505090565b6000600160401b6009546107e19190614302565b6120fd8282610e07565b6107c25761210a81612b85565b612115836020612b97565b604051602001612126929190614446565b60408051601f198184030181529082905262461bcd60e51b825261089c916004016139d8565b60005b815181101561095c5761217b8383838151811061216e5761216e614115565b6020026020010151611af0565b8061218581614141565b91505061214f565b828233321480159061220857506002546040516305a3b80960e01b81523360048201526001600160a01b03909116906305a3b80990602401602060405180830381865afa1580156121e2573d6000803e3d6000fd5b505050506040513d601f19601f82011682018060405250810190612206919061415a565b155b156122285760405163937db65f60e01b815233600482015260240161089c565b6001600160a01b0382163b158015906122ac57506002546040516305a3b80960e01b81526001600160a01b038481166004830152909116906305a3b80990602401602060405180830381865afa158015612286573d6000803e3d6000fd5b505050506040513d601f19601f820116820180604052508101906122aa919061415a565b155b156122d55760405163f934453160e01b81526001600160a01b038316600482015260240161089c565b6001600160a01b0381163b1580159061235957506002546040516305a3b80960e01b81526001600160a01b038381166004830152909116906305a3b80990602401602060405180830381865afa158015612333573d6000803e3d6000fd5b505050506040513d601f19601f82011682018060405250810190612357919061415a565b155b1561238257604051632a67242160e11b81526001600160a01b038216600482015260240161089c565b61238d858585612d32565b5050505050565b61239e8282610e07565b156107c2576000828152602081815260408083206001600160a01b0385168085529252808320805460ff1916905551339285917ff6391f5c32d9c69d2a47ea670b442974b53935d1edc7fd64eb21e047a839171b9190a45050565b6000610e00836001600160a01b038416612d54565b6001600160a01b0382166124645760405162461bcd60e51b815260206004820181905260248201527f4552433732313a206d696e7420746f20746865207a65726f2061646472657373604482015260640161089c565b61246d81611714565b156124ba5760405162461bcd60e51b815260206004820152601c60248201527f4552433732313a20746f6b656e20616c7265616479206d696e74656400000000604482015260640161089c565b6124c381611714565b156125105760405162461bcd60e51b815260206004820152601c60248201527f4552433732313a20746f6b656e20616c7265616479206d696e74656400000000604482015260640161089c565b6001600160a01b038216600081815260106020908152604080832080546001019055848352600f90915280822080546001600160a01b031916841790555183929190600080516020614618833981519152908290a45050565b6000806125758361177b565b9050806001600160a01b0316846001600160a01b0316148061259c575061259c818561118f565b806125c05750836001600160a01b03166125b5846107e6565b6001600160a01b0316145b949350505050565b60006125d382611714565b6126375760405162461bcd60e51b815260206004820152602f60248201527f4552433732315073693a206f70657261746f7220717565727920666f72206e6f60448201526e3732bc34b9ba32b73a103a37b5b2b760891b606482015260840161089c565b600061264283610cdb565b9050806001600160a01b0316846001600160a01b0316148061267d5750836001600160a01b0316612672846107e6565b6001600160a01b0316145b806125c057506125c0818561118f565b60006126988261177b565b90506126a38261177b565b600083815260116020908152604080832080546001600160a01b03199081169091556001600160a01b038516808552601084528285208054600019019055878552600f90935281842080549091169055519293508492600080516020614618833981519152908390a45050565b600061271b82610cdb565b9050612728600c83612e47565b60405182906000906001600160a01b03841690600080516020614618833981519152908390a45050565b600881901c6000908152600c6020526040812054600160ff1b60ff84161c161561277e57506000919050565b6107d182612e73565b6107c2828260405180602001604052806000815250612e92565b6000806127ad83611714565b61280e5760405162461bcd60e51b815260206004820152602c60248201527f4552433732315073693a206f776e657220717565727920666f72206e6f6e657860448201526b34b9ba32b73a103a37b5b2b760a11b606482015260840161089c565b61281783612ed3565b6000818152600860205260409020546001600160a01b031694909350915050565b600082600001828154811061284f5761284f614115565b9060005260206000200154905092915050565b60005b815181101561095c576128918383838151811061288457612884614115565b6020026020010151611546565b8061289b81614141565b915050612865565b6107c2828260405180602001604052806000815250612ee0565b6107c2338383612eeb565b600160401b8210156128e0576110b784848484612fb9565b610c9184848484612fec565b606060168054611294906141c3565b6060600061290883613005565b60010190506000816001600160401b0381111561292757612927613a45565b6040519080825280601f01601f191660200182016040528015612951576020820181803683370190505b5090508181016020015b600019016f181899199a1a9b1b9c1cb0b131b232b360811b600a86061a8153600a850494508461295b57509392505050565b600061299860095490565b9050600082116129f85760405162461bcd60e51b815260206004820152602560248201527f4552433732315073693a207175616e74697479206d7573742062652067726561604482015264074657220360dc1b606482015260840161089c565b6001600160a01b038316612a5a5760405162461bcd60e51b815260206004820152602360248201527f4552433732315073693a206d696e7420746f20746865207a65726f206164647260448201526265737360e81b606482015260840161089c565b8160096000828254612a6c9190614177565b9091555050600081815260086020526040902080546001600160a01b0319166001600160a01b038516179055612aa3600582612e47565b600080612ab08484614177565b90506001600160a01b038516915082826000600080516020614618833981519152600080a4600183015b818114612b005780836000600080516020614618833981519152600080a4600101612ada565b5061238d565b60006001600160e01b031982166380ac58cd60e01b1480612b3757506001600160e01b03198216635b5e139f60e01b145b806107d157506107d1826130dd565b600160401b811015612b5c576107c28282613102565b6107c28282613170565b60005b8115612b8057600019820190911690600101612b69565b919050565b60606107d16001600160a01b03831660145b60606000612ba683600261418a565b612bb1906002614177565b6001600160401b03811115612bc857612bc8613a45565b6040519080825280601f01601f191660200182016040528015612bf2576020820181803683370190505b509050600360fc1b81600081518110612c0d57612c0d614115565b60200101906001600160f81b031916908160001a905350600f60fb1b81600181518110612c3c57612c3c614115565b60200101906001600160f81b031916908160001a9053506000612c6084600261418a565b612c6b906001614177565b90505b6001811115612ce3576f181899199a1a9b1b9c1cb0b131b232b360811b85600f1660108110612c9f57612c9f614115565b1a60f81b828281518110612cb557612cb5614115565b60200101906001600160f81b031916908160001a90535060049490941c93612cdc816143b6565b9050612c6e565b508315610e005760405162461bcd60e51b815260206004820181905260248201527f537472696e67733a20686578206c656e67746820696e73756666696369656e74604482015260640161089c565b600160401b811015612d495761095c8383836131a5565b61095c8383836132f7565b60008181526001830160205260408120548015612e3d576000612d78600183614302565b8554909150600090612d8c90600190614302565b9050818114612df1576000866000018281548110612dac57612dac614115565b9060005260206000200154905080876000018481548110612dcf57612dcf614115565b6000918252602080832090910192909255918252600188019052604090208390555b8554869080612e0257612e026144bb565b6001900381819060005260206000200160009055905585600101600086815260200190815260200160002060009055600193505050506107d1565b60009150506107d1565b600881901c600090815260209290925260409091208054600160ff1b60ff9093169290921c9091179055565b6000612e7e60095490565b821080156107d1575050600160401b111590565b6000612e9d60095490565b9050612ea9848461298d565b612eb76000858386866134cf565b610c915760405162461bcd60e51b815260040161089c906144d1565b60006107d1600583613606565b61095c8383836136fe565b816001600160a01b0316836001600160a01b031603612f4c5760405162461bcd60e51b815260206004820152601960248201527f4552433732313a20617070726f766520746f2063616c6c657200000000000000604482015260640161089c565b6001600160a01b03838116600081815260126020908152604080832094871680845294825291829020805460ff191686151590811790915591519182527f17307eab39ab6107e8899845ad3d59bd9653f200f220920489ca2b5937696c31910160405180910390a3505050565b612fc484848461218d565b612fd084848484613731565b610c915760405162461bcd60e51b815260040161089c90614526565b612ff784848461218d565b612eb78484846001856134cf565b60008072184f03e93ff9f4daa797ed6e38ed64bf6a1f0160401b83106130445772184f03e93ff9f4daa797ed6e38ed64bf6a1f0160401b830492506040015b6d04ee2d6d415b85acef81000000008310613070576d04ee2d6d415b85acef8100000000830492506020015b662386f26fc10000831061308e57662386f26fc10000830492506010015b6305f5e10083106130a6576305f5e100830492506008015b61271083106130ba57612710830492506004015b606483106130cc576064830492506002015b600a83106107d15760010192915050565b60006001600160e01b0319821663152a902d60e11b14806107d157506107d18261382a565b600081815260116020526040902080546001600160a01b0319166001600160a01b03841690811790915581906131378261177b565b6001600160a01b03167f8c5be1e5ebec7d5bd14f71427d1e84f3dd0314c0f7b2291e5b200ac8c7c3b92560405160405180910390a45050565b6000818152600a6020526040902080546001600160a01b0319166001600160a01b038416908117909155819061313782610cdb565b826001600160a01b03166131b88261177b565b6001600160a01b0316146131de5760405162461bcd60e51b815260040161089c90614578565b6001600160a01b0382166132405760405162461bcd60e51b8152602060048201526024808201527f4552433732313a207472616e7366657220746f20746865207a65726f206164646044820152637265737360e01b606482015260840161089c565b826001600160a01b03166132538261177b565b6001600160a01b0316146132795760405162461bcd60e51b815260040161089c90614578565b600081815260116020908152604080832080546001600160a01b03199081169091556001600160a01b0387811680865260108552838620805460001901905590871680865283862080546001019055868652600f909452828520805490921684179091559051849360008051602061461883398151915291a4505050565b600080613303836127a1565b91509150846001600160a01b0316826001600160a01b03161461337d5760405162461bcd60e51b815260206004820152602c60248201527f4552433732315073693a207472616e73666572206f6620746f6b656e2074686160448201526b3a1034b9903737ba1037bbb760a11b606482015260840161089c565b6001600160a01b0384166133e35760405162461bcd60e51b815260206004820152602760248201527f4552433732315073693a207472616e7366657220746f20746865207a65726f206044820152666164647265737360c81b606482015260840161089c565b6133ee600084612b46565b60006133fb846001614177565b600881901c600090815260056020526040902054909150600160ff1b60ff83161c1615801561342b575060095481105b1561346257600081815260086020526040902080546001600160a01b0319166001600160a01b038816179055613462600582612e47565b600084815260086020526040902080546001600160a01b0319166001600160a01b03871617905581841461349b5761349b600585612e47565b83856001600160a01b0316876001600160a01b031660008051602061461883398151915260405160405180910390a4611097565b60006001600160a01b0385163b156135f957506001835b6134f08486614177565b8110156135f357604051630a85bd0160e11b81526001600160a01b0387169063150b7a02906135299033908b90869089906004016145bd565b6020604051808303816000875af1925050508015613564575060408051601f3d908101601f19168201909252613561918101906145fa565b60015b6135c1573d808015613592576040519150601f19603f3d011682016040523d82523d6000602084013e613597565b606091505b5080516000036135b95760405162461bcd60e51b815260040161089c906144d1565b805181602001fd5b8280156135de57506001600160e01b03198116630a85bd0160e11b145b925050806135eb81614141565b9150506134e6565b506135fd565b5060015b95945050505050565b600881901c60008181526020849052604081205490919060ff808516919082181c80156136485761363681613835565b60ff168203600884901b1793506136f5565b600083116136b55760405162461bcd60e51b815260206004820152603460248201527f4269744d6170733a205468652073657420626974206265666f7265207468652060448201527334b73232bc103237b2b9b713ba1032bc34b9ba1760611b606482015260840161089c565b5060001990910160008181526020869052604090205490919080156136f0576136dd81613835565b60ff0360ff16600884901b1793506136f5565b613648565b50505092915050565b613708838361389f565b6137156000848484613731565b61095c5760405162461bcd60e51b815260040161089c90614526565b60006001600160a01b0384163b1561381f57604051630a85bd0160e11b81526001600160a01b0385169063150b7a02906137759033908990889088906004016145bd565b6020604051808303816000875af19250505080156137b0575060408051601f3d908101601f191682019092526137ad918101906145fa565b60015b613805573d8080156137de576040519150601f19603f3d011682016040523d82523d6000602084013e6137e3565b606091505b5080516000036135b95760405162461bcd60e51b815260040161089c90614526565b6001600160e01b031916630a85bd0160e11b1490506125c0565b506001949350505050565b60006107d1826138a9565b60006040518061012001604052806101008152602001614638610100913960f87e818283848586878898a8b8c8d8e8f929395969799a9b9d9e9faaeb6bedeeff61387e856138ce565b02901c8151811061389157613891614115565b016020015160f81c92915050565b6107c2828261240e565b60006001600160e01b03198216635a05180f60e01b14806107d157506107d1826138e6565b60008082116138dc57600080fd5b5060008190031690565b60006001600160e01b03198216637965db0b60e01b14806107d157506301ffc9a760e01b6001600160e01b03198316146107d1565b60006020828403121561392d57600080fd5b81356001600160401b0381111561394357600080fd5b820160608185031215610e0057600080fd5b6001600160e01b031981168114610c6b57600080fd5b60006020828403121561397d57600080fd5b8135610e0081613955565b60005b838110156139a357818101518382015260200161398b565b50506000910152565b600081518084526139c4816020860160208601613988565b601f01601f19169290920160200192915050565b602081526000610e0060208301846139ac565b6000602082840312156139fd57600080fd5b5035919050565b80356001600160a01b0381168114612b8057600080fd5b60008060408385031215613a2e57600080fd5b613a3783613a04565b946020939093013593505050565b634e487b7160e01b600052604160045260246000fd5b604080519081016001600160401b0381118282101715613a7d57613a7d613a45565b60405290565b604051601f8201601f191681016001600160401b0381118282101715613aab57613aab613a45565b604052919050565b60006001600160401b03821115613acc57613acc613a45565b5060051b60200190565b6000613ae9613ae484613ab3565b613a83565b8381529050602080820190600585811b850187811115613b0857600080fd5b855b81811015613bdb5780356001600160401b0380821115613b2a5760008081fd5b908801906040828c031215613b3f5760008081fd5b613b47613a5b565b613b5083613a04565b81528683013582811115613b645760008081fd5b8084019350508b601f840112613b7c57600091508182fd5b82359150613b8c613ae483613ab3565b82815291861b8301870191878101908d841115613ba95760008081fd5b938801935b83851015613bc757843582529388019390880190613bae565b828901525087525050938301938301613b0a565b50505050509392505050565b600060208284031215613bf957600080fd5b81356001600160401b03811115613c0f57600080fd5b8201601f81018413613c2057600080fd5b6125c084823560208401613ad6565b600080600060608486031215613c4457600080fd5b613c4d84613a04565b9250613c5b60208501613a04565b9150604084013590509250925092565b60008060408385031215613c7e57600080fd5b50508035926020909101359150565b60006020808385031215613ca057600080fd5b82356001600160401b03811115613cb657600080fd5b8301601f81018513613cc757600080fd5b8035613cd5613ae482613ab3565b81815260069190911b82018301908381019087831115613cf457600080fd5b928401925b82841015613d3e5760408489031215613d125760008081fd5b613d1a613a5b565b613d2385613a04565b81528486013586820152825260409093019290840190613cf9565b979650505050505050565b60008060408385031215613d5c57600080fd5b82359150613d6c60208401613a04565b90509250929050565b6020808252825182820181905260009190848201906040850190845b81811015613db65783516001600160a01b031683529284019291840191600101613d91565b50909695505050505050565b600060208284031215613dd457600080fd5b610e0082613a04565b80356001600160601b0381168114612b8057600080fd5b600080600060608486031215613e0957600080fd5b83359250613e1960208501613a04565b9150613e2760408501613ddd565b90509250925092565b60006001600160401b03831115613e4957613e49613a45565b613e5c601f8401601f1916602001613a83565b9050828152838383011115613e7057600080fd5b828260208301376000602084830101529392505050565b600060208284031215613e9957600080fd5b81356001600160401b03811115613eaf57600080fd5b8201601f81018413613ec057600080fd5b6125c084823560208401613e30565b60008060408385031215613ee257600080fd5b613eeb83613a04565b9150613d6c60208401613ddd565b8015158114610c6b57600080fd5b60008060408385031215613f1a57600080fd5b613f2383613a04565b91506020830135613f3381613ef9565b809150509250929050565b60008083601f840112613f5057600080fd5b5081356001600160401b03811115613f6757600080fd5b6020830191508360208260051b8501011115610a6257600080fd5b60008060008060608587031215613f9857600080fd5b84356001600160401b03811115613fae57600080fd5b613fba87828801613f3e565b9095509350613fcd905060208601613a04565b9150613fdb60408601613ddd565b905092959194509250565b60008060008060808587031215613ffc57600080fd5b61400585613a04565b935061401360208601613a04565b92506040850135915060608501356001600160401b0381111561403557600080fd5b8501601f8101871361404657600080fd5b61405587823560208401613e30565b91505092959194509250565b6000806020838503121561407457600080fd5b82356001600160401b0381111561408a57600080fd5b61409685828601613f3e565b90969095509350505050565b600080604083850312156140b557600080fd5b6140be83613a04565b9150613d6c60208401613a04565b6000808335601e198436030181126140e357600080fd5b8301803591506001600160401b038211156140fd57600080fd5b6020019150600581901b3603821315610a6257600080fd5b634e487b7160e01b600052603260045260246000fd5b634e487b7160e01b600052601160045260246000fd5b6000600182016141535761415361412b565b5060010190565b60006020828403121561416c57600080fd5b8151610e0081613ef9565b808201808211156107d1576107d161412b565b80820281158282048414176107d1576107d161412b565b6000826141be57634e487b7160e01b600052601260045260246000fd5b500490565b600181811c908216806141d757607f821691505b6020821081036141f757634e487b7160e01b600052602260045260246000fd5b50919050565b601f82111561095c57600081815260208120601f850160051c810160208610156142245750805b601f850160051c820191505b8181101561109757828155600101614230565b81516001600160401b0381111561425c5761425c613a45565b6142708161426a84546141c3565b846141fd565b602080601f8311600181146142a5576000841561428d5750858301515b600019600386901b1c1916600185901b178555611097565b600085815260208120601f198616915b828110156142d4578886015182559484019460019091019084016142b5565b50858210156142f25787850151600019600388901b60f8161c191681555b5050505050600190811b01905550565b818103818111156107d1576107d161412b565b6020808252602d908201527f4552433732313a2063616c6c6572206973206e6f7420746f6b656e206f776e6560408201526c1c881bdc88185c1c1c9bdd9959609a1b606082015260800190565b60208082526034908201527f4552433732315073693a207472616e736665722063616c6c6572206973206e6f6040820152731d081bdddb995c881b9bdc88185c1c1c9bdd995960621b606082015260800190565b6000816143c5576143c561412b565b506000190190565b6020808252602a908201527f455243323938313a20726f79616c7479206665652077696c6c206578636565646040820152692073616c65507269636560b01b606082015260800190565b60008351614429818460208801613988565b83519083019061443d818360208801613988565b01949350505050565b7f416363657373436f6e74726f6c3a206163636f756e742000000000000000000081526000835161447e816017850160208801613988565b7001034b99036b4b9b9b4b733903937b6329607d1b60179184019182015283516144af816028840160208801613988565b01602801949350505050565b634e487b7160e01b600052603160045260246000fd5b60208082526035908201527f4552433732315073693a207472616e7366657220746f206e6f6e20455243373260408201527418a932b1b2b4bb32b91034b6b83632b6b2b73a32b960591b606082015260800190565b60208082526032908201527f4552433732313a207472616e7366657220746f206e6f6e20455243373231526560408201527131b2b4bb32b91034b6b83632b6b2b73a32b960711b606082015260800190565b60208082526025908201527f4552433732313a207472616e736665722066726f6d20696e636f72726563742060408201526437bbb732b960d91b606082015260800190565b6001600160a01b03858116825284166020820152604081018390526080606082018190526000906145f0908301846139ac565b9695505050505050565b60006020828403121561460c57600080fd5b8151610e008161395556feddf252ad1be2c89b69c2b068fc378daa952ba7f163c4a11628f55a4df523b3ef0001020903110a19042112290b311a3905412245134d2a550c5d32651b6d3a7506264262237d468514804e8d2b95569d0d495ea533a966b11c886eb93bc176c9071727374353637324837e9b47af86c7155181ad4fd18ed32c9096db57d59ee30e2e4a6a5f92a6be3498aae067ddb2eb1d5989b56fd7baf33ca0c2ee77e5caf7ff0810182028303840444c545c646c7425617c847f8c949c48a4a8b087b8c0c816365272829aaec650acd0d28fdad4e22d6991bd97dfdcea58b4d6f29fede4f6fe0f1f2f3f4b5b6b607b8b93a3a7b7bf357199c5abcfd9e168bcdee9b3f1ecf5fd1e3e5a7a8aa2b670c4ced8bbe8f0f4fc3d79a1c3cde7effb78cce6facbf9f8a2646970667358221220acee008d5a33459f9cf3fbd76666de823ee8571941f861778655ad8e1122affb64736f6c63430008110033",
    "linkReferences": {},
    "deployedLinkReferences": {}
}